{
  "_format": "hh-sol-artifact-1",
  "contractName": "chai",
  "sourceName": "contracts/chai.sol",
  "abi": [
    {
      "inputs": [],
      "stateMutability": "nonpayable",
      "type": "constructor"
    },
    {
      "inputs": [
        {
          "internalType": "string",
          "name": "nameMovie",
          "type": "string"
        },
        {
          "internalType": "string",
          "name": "nameCinema",
          "type": "string"
        },
        {
          "internalType": "string",
          "name": "numChair",
          "type": "string"
        },
        {
          "internalType": "string",
          "name": "time",
          "type": "string"
        },
        {
          "internalType": "uint256",
          "name": "price",
          "type": "uint256"
        }
      ],
      "name": "buyTicket",
      "outputs": [],
      "stateMutability": "payable",
      "type": "function"
    },
    {
      "inputs": [],
      "name": "getTickets",
      "outputs": [
        {
          "components": [
            {
              "internalType": "string",
              "name": "nameMovie",
              "type": "string"
            },
            {
              "internalType": "string",
              "name": "nameCinema",
              "type": "string"
            },
            {
              "internalType": "string",
              "name": "numChair",
              "type": "string"
            },
            {
              "internalType": "string",
              "name": "time",
              "type": "string"
            },
            {
              "internalType": "uint256",
              "name": "price",
              "type": "uint256"
            },
            {
              "internalType": "uint256",
              "name": "timestamp",
              "type": "uint256"
            },
            {
              "internalType": "address",
              "name": "from",
              "type": "address"
            }
          ],
          "internalType": "struct chai.Ticket[]",
          "name": "",
          "type": "tuple[]"
        }
      ],
      "stateMutability": "view",
      "type": "function"
    }
  ],
  "bytecode": "0x608060405234801561001057600080fd5b5033600160006101000a81548173ffffffffffffffffffffffffffffffffffffffff021916908373ffffffffffffffffffffffffffffffffffffffff160217905550610e4c806100616000396000f3fe6080604052600436106100295760003560e01c8063464537b01461002e5780634ed026221461004a575b600080fd5b6100486004803603810190610043919061071b565b610075565b005b34801561005657600080fd5b5061005f610365565b60405161006c9190610a6a565b60405180910390f35b600034116100b8576040517f08c379a00000000000000000000000000000000000000000000000000000000081526004016100af90610ae9565b60405180910390fd5b600160009054906101000a900473ffffffffffffffffffffffffffffffffffffffff1673ffffffffffffffffffffffffffffffffffffffff166108fc349081150290604051600060405180830381858888f19350505050158015610120573d6000803e3d6000fd5b5060006040518060e001604052808b8b8080601f016020809104026020016040519081016040528093929190818152602001838380828437600081840152601f19601f82011690508083019250505050505050815260200189898080601f016020809104026020016040519081016040528093929190818152602001838380828437600081840152601f19601f82011690508083019250505050505050815260200187878080601f016020809104026020016040519081016040528093929190818152602001838380828437600081840152601f19601f82011690508083019250505050505050815260200185858080601f016020809104026020016040519081016040528093929190818152602001838380828437600081840152601f19601f8201169050808301925050505050505081526020018381526020014281526020013373ffffffffffffffffffffffffffffffffffffffff16815250908060018154018082558091505060019003906000526020600020906007020160009091909190915060008201518160000190816102ba9190610d44565b5060208201518160010190816102d09190610d44565b5060408201518160020190816102e69190610d44565b5060608201518160030190816102fc9190610d44565b506080820151816004015560a0820151816005015560c08201518160060160006101000a81548173ffffffffffffffffffffffffffffffffffffffff021916908373ffffffffffffffffffffffffffffffffffffffff1602179055505050505050505050505050565b60606000805480602002602001604051908101604052809291908181526020016000905b8282101561066d57838290600052602060002090600702016040518060e00160405290816000820180546103bc90610b67565b80601f01602080910402602001604051908101604052809291908181526020018280546103e890610b67565b80156104355780601f1061040a57610100808354040283529160200191610435565b820191906000526020600020905b81548152906001019060200180831161041857829003601f168201915b5050505050815260200160018201805461044e90610b67565b80601f016020809104026020016040519081016040528092919081815260200182805461047a90610b67565b80156104c75780601f1061049c576101008083540402835291602001916104c7565b820191906000526020600020905b8154815290600101906020018083116104aa57829003601f168201915b505050505081526020016002820180546104e090610b67565b80601f016020809104026020016040519081016040528092919081815260200182805461050c90610b67565b80156105595780601f1061052e57610100808354040283529160200191610559565b820191906000526020600020905b81548152906001019060200180831161053c57829003601f168201915b5050505050815260200160038201805461057290610b67565b80601f016020809104026020016040519081016040528092919081815260200182805461059e90610b67565b80156105eb5780601f106105c0576101008083540402835291602001916105eb565b820191906000526020600020905b8154815290600101906020018083116105ce57829003601f168201915b5050505050815260200160048201548152602001600582015481526020016006820160009054906101000a900473ffffffffffffffffffffffffffffffffffffffff1673ffffffffffffffffffffffffffffffffffffffff1673ffffffffffffffffffffffffffffffffffffffff168152505081526020019060010190610389565b50505050905090565b600080fd5b600080fd5b600080fd5b600080fd5b600080fd5b60008083601f8401126106a5576106a4610680565b5b8235905067ffffffffffffffff8111156106c2576106c1610685565b5b6020830191508360018202830111156106de576106dd61068a565b5b9250929050565b6000819050919050565b6106f8816106e5565b811461070357600080fd5b50565b600081359050610715816106ef565b92915050565b600080600080600080600080600060a08a8c03121561073d5761073c610676565b5b60008a013567ffffffffffffffff81111561075b5761075a61067b565b5b6107678c828d0161068f565b995099505060208a013567ffffffffffffffff81111561078a5761078961067b565b5b6107968c828d0161068f565b975097505060408a013567ffffffffffffffff8111156107b9576107b861067b565b5b6107c58c828d0161068f565b955095505060608a013567ffffffffffffffff8111156107e8576107e761067b565b5b6107f48c828d0161068f565b935093505060806108078c828d01610706565b9150509295985092959850929598565b600081519050919050565b600082825260208201905092915050565b6000819050602082019050919050565b600081519050919050565b600082825260208201905092915050565b60005b8381101561087d578082015181840152602081019050610862565b60008484015250505050565b6000601f19601f8301169050919050565b60006108a582610843565b6108af818561084e565b93506108bf81856020860161085f565b6108c881610889565b840191505092915050565b6108dc816106e5565b82525050565b600073ffffffffffffffffffffffffffffffffffffffff82169050919050565b600061090d826108e2565b9050919050565b61091d81610902565b82525050565b600060e0830160008301518482036000860152610940828261089a565b9150506020830151848203602086015261095a828261089a565b91505060408301518482036040860152610974828261089a565b9150506060830151848203606086015261098e828261089a565b91505060808301516109a360808601826108d3565b5060a08301516109b660a08601826108d3565b5060c08301516109c960c0860182610914565b508091505092915050565b60006109e08383610923565b905092915050565b6000602082019050919050565b6000610a0082610817565b610a0a8185610822565b935083602082028501610a1c85610833565b8060005b85811015610a585784840389528151610a3985826109d4565b9450610a44836109e8565b925060208a01995050600181019050610a20565b50829750879550505050505092915050565b60006020820190508181036000830152610a8481846109f5565b905092915050565b600082825260208201905092915050565b7f506c6561736520706179206d6f7265207468616e203020657468657200000000600082015250565b6000610ad3601c83610a8c565b9150610ade82610a9d565b602082019050919050565b60006020820190508181036000830152610b0281610ac6565b9050919050565b7f4e487b7100000000000000000000000000000000000000000000000000000000600052604160045260246000fd5b7f4e487b7100000000000000000000000000000000000000000000000000000000600052602260045260246000fd5b60006002820490506001821680610b7f57607f821691505b602082108103610b9257610b91610b38565b5b50919050565b60008190508160005260206000209050919050565b60006020601f8301049050919050565b600082821b905092915050565b600060088302610bfa7fffffffffffffffffffffffffffffffffffffffffffffffffffffffffffffffff82610bbd565b610c048683610bbd565b95508019841693508086168417925050509392505050565b6000819050919050565b6000610c41610c3c610c37846106e5565b610c1c565b6106e5565b9050919050565b6000819050919050565b610c5b83610c26565b610c6f610c6782610c48565b848454610bca565b825550505050565b600090565b610c84610c77565b610c8f818484610c52565b505050565b5b81811015610cb357610ca8600082610c7c565b600181019050610c95565b5050565b601f821115610cf857610cc981610b98565b610cd284610bad565b81016020851015610ce1578190505b610cf5610ced85610bad565b830182610c94565b50505b505050565b600082821c905092915050565b6000610d1b60001984600802610cfd565b1980831691505092915050565b6000610d348383610d0a565b9150826002028217905092915050565b610d4d82610843565b67ffffffffffffffff811115610d6657610d65610b09565b5b610d708254610b67565b610d7b828285610cb7565b600060209050601f831160018114610dae5760008415610d9c578287015190505b610da68582610d28565b865550610e0e565b601f198416610dbc86610b98565b60005b82811015610de457848901518255600182019150602085019450602081019050610dbf565b86831015610e015784890151610dfd601f891682610d0a565b8355505b6001600288020188555050505b50505050505056fea2646970667358221220a9b049f5502ba1b258849095e6075f0442cba0c6ba5f785e4511ea8ac460b5b964736f6c63430008120033",
  "linkReferences": {},
  "deployedLinkReferences": {}
}